{
  "_format": "hh-sol-artifact-1",
  "contractName": "WrapperContract",
  "sourceName": "contracts/WrapperContract.sol",
  "abi": [
    {
      "inputs": [
        {
          "internalType": "uint16",
          "name": "_margin",
          "type": "uint16"
        },
        {
          "internalType": "address",
          "name": "_dataFeedAddress",
          "type": "address"
        },
        {
          "internalType": "contract IERC20",
          "name": "_CGT",
          "type": "address"
        },
        {
          "internalType": "contract IERC20",
          "name": "_stable",
          "type": "address"
        },
        {
          "internalType": "contract ISwapRouter",
          "name": "_swapRouter",
          "type": "address"
        }
      ],
      "stateMutability": "nonpayable",
      "type": "constructor"
    },
    {
      "anonymous": false,
      "inputs": [
        {
          "indexed": true,
          "internalType": "address",
          "name": "previousOwner",
          "type": "address"
        },
        {
          "indexed": true,
          "internalType": "address",
          "name": "newOwner",
          "type": "address"
        }
      ],
      "name": "OwnershipTransferred",
      "type": "event"
    },
    {
      "anonymous": false,
      "inputs": [
        {
          "indexed": false,
          "internalType": "address",
          "name": "account",
          "type": "address"
        }
      ],
      "name": "Paused",
      "type": "event"
    },
    {
      "anonymous": false,
      "inputs": [
        {
          "indexed": false,
          "internalType": "address",
          "name": "sender",
          "type": "address"
        },
        {
          "indexed": false,
          "internalType": "address",
          "name": "tokenIn",
          "type": "address"
        },
        {
          "indexed": false,
          "internalType": "uint256",
          "name": "CGTAmount",
          "type": "uint256"
        }
      ],
      "name": "SwappedTokensForCGT",
      "type": "event"
    },
    {
      "anonymous": false,
      "inputs": [
        {
          "indexed": false,
          "internalType": "address",
          "name": "account",
          "type": "address"
        }
      ],
      "name": "Unpaused",
      "type": "event"
    },
    {
      "inputs": [],
      "name": "CGT",
      "outputs": [
        {
          "internalType": "contract IERC20",
          "name": "",
          "type": "address"
        }
      ],
      "stateMutability": "view",
      "type": "function"
    },
    {
      "inputs": [],
      "name": "getLatestXAU_USDPrice",
      "outputs": [
        {
          "internalType": "int256",
          "name": "",
          "type": "int256"
        }
      ],
      "stateMutability": "view",
      "type": "function"
    },
    {
      "inputs": [],
      "name": "margin",
      "outputs": [
        {
          "internalType": "uint16",
          "name": "",
          "type": "uint16"
        }
      ],
      "stateMutability": "view",
      "type": "function"
    },
    {
      "inputs": [],
      "name": "owner",
      "outputs": [
        {
          "internalType": "address",
          "name": "",
          "type": "address"
        }
      ],
      "stateMutability": "view",
      "type": "function"
    },
    {
      "inputs": [],
      "name": "pause",
      "outputs": [],
      "stateMutability": "nonpayable",
      "type": "function"
    },
    {
      "inputs": [],
      "name": "paused",
      "outputs": [
        {
          "internalType": "bool",
          "name": "",
          "type": "bool"
        }
      ],
      "stateMutability": "view",
      "type": "function"
    },
    {
      "inputs": [
        {
          "internalType": "uint256",
          "name": "stableAmountIn",
          "type": "uint256"
        }
      ],
      "name": "quoteCGTAmountReceived",
      "outputs": [
        {
          "internalType": "uint256",
          "name": "",
          "type": "uint256"
        }
      ],
      "stateMutability": "view",
      "type": "function"
    },
    {
      "inputs": [],
      "name": "renounceOwnership",
      "outputs": [],
      "stateMutability": "nonpayable",
      "type": "function"
    },
    {
      "inputs": [
        {
          "internalType": "uint16",
          "name": "_margin",
          "type": "uint16"
        }
      ],
      "name": "setMargin",
      "outputs": [],
      "stateMutability": "nonpayable",
      "type": "function"
    },
    {
      "inputs": [
        {
          "internalType": "contract IERC20",
          "name": "_stable",
          "type": "address"
        }
      ],
      "name": "setStable",
      "outputs": [],
      "stateMutability": "nonpayable",
      "type": "function"
    },
    {
      "inputs": [],
      "name": "stable",
      "outputs": [
        {
          "internalType": "contract IERC20",
          "name": "",
          "type": "address"
        }
      ],
      "stateMutability": "view",
      "type": "function"
    },
    {
      "inputs": [],
      "name": "swapRouter",
      "outputs": [
        {
          "internalType": "contract ISwapRouter",
          "name": "",
          "type": "address"
        }
      ],
      "stateMutability": "view",
      "type": "function"
    },
    {
      "inputs": [
        {
          "internalType": "address",
          "name": "tokenIn",
          "type": "address"
        },
        {
          "internalType": "uint24",
          "name": "poolFee",
          "type": "uint24"
        },
        {
          "internalType": "uint256",
          "name": "amountIn",
          "type": "uint256"
        },
        {
          "internalType": "uint256",
          "name": "stableAmountOutMinimum",
          "type": "uint256"
        },
        {
          "internalType": "uint160",
          "name": "sqrtPriceLimitX96",
          "type": "uint160"
        }
      ],
      "name": "swapTokensForCGT",
      "outputs": [],
      "stateMutability": "nonpayable",
      "type": "function"
    },
    {
      "inputs": [],
      "name": "totalFeesCollected",
      "outputs": [
        {
          "internalType": "uint256",
          "name": "",
          "type": "uint256"
        }
      ],
      "stateMutability": "view",
      "type": "function"
    },
    {
      "inputs": [
        {
          "internalType": "address",
          "name": "newOwner",
          "type": "address"
        }
      ],
      "name": "transferOwnership",
      "outputs": [],
      "stateMutability": "nonpayable",
      "type": "function"
    },
    {
      "inputs": [],
      "name": "unpause",
      "outputs": [],
      "stateMutability": "nonpayable",
      "type": "function"
    },
    {
      "inputs": [
        {
          "internalType": "contract IERC20",
          "name": "token",
          "type": "address"
        }
      ],
      "name": "withdrawTokens",
      "outputs": [],
      "stateMutability": "nonpayable",
      "type": "function"
    }
  ],
  "bytecode": "0x60c06040523480156200001157600080fd5b50604051620027183803806200271883398181016040528101906200003791906200054e565b620000576200004b6200034f60201b60201c565b6200035760201b60201c565b60008060146101000a81548160ff021916908315150217905550600073ffffffffffffffffffffffffffffffffffffffff168473ffffffffffffffffffffffffffffffffffffffff161415620000e4576040517f08c379a0000000000000000000000000000000000000000000000000000000008152600401620000db9062000637565b60405180910390fd5b600073ffffffffffffffffffffffffffffffffffffffff168373ffffffffffffffffffffffffffffffffffffffff16141562000157576040517f08c379a00000000000000000000000000000000000000000000000000000000081526004016200014e90620006a9565b60405180910390fd5b600073ffffffffffffffffffffffffffffffffffffffff168273ffffffffffffffffffffffffffffffffffffffff161415620001ca576040517f08c379a0000000000000000000000000000000000000000000000000000000008152600401620001c1906200071b565b60405180910390fd5b600073ffffffffffffffffffffffffffffffffffffffff168173ffffffffffffffffffffffffffffffffffffffff1614156200023d576040517f08c379a000000000000000000000000000000000000000000000000000000000815260040162000234906200078d565b60405180910390fd5b84600160146101000a81548161ffff021916908361ffff16021790555083600160006101000a81548173ffffffffffffffffffffffffffffffffffffffff021916908373ffffffffffffffffffffffffffffffffffffffff1602179055508273ffffffffffffffffffffffffffffffffffffffff1660808173ffffffffffffffffffffffffffffffffffffffff168152505081600360006101000a81548173ffffffffffffffffffffffffffffffffffffffff021916908373ffffffffffffffffffffffffffffffffffffffff1602179055508073ffffffffffffffffffffffffffffffffffffffff1660a08173ffffffffffffffffffffffffffffffffffffffff16815250505050505050620007af565b600033905090565b60008060009054906101000a900473ffffffffffffffffffffffffffffffffffffffff169050816000806101000a81548173ffffffffffffffffffffffffffffffffffffffff021916908373ffffffffffffffffffffffffffffffffffffffff1602179055508173ffffffffffffffffffffffffffffffffffffffff168173ffffffffffffffffffffffffffffffffffffffff167f8be0079c531659141344cd1fd0a4f28419497f9722a3daafe3b4186f6b6457e060405160405180910390a35050565b600080fd5b600061ffff82169050919050565b620004398162000420565b81146200044557600080fd5b50565b60008151905062000459816200042e565b92915050565b600073ffffffffffffffffffffffffffffffffffffffff82169050919050565b60006200048c826200045f565b9050919050565b6200049e816200047f565b8114620004aa57600080fd5b50565b600081519050620004be8162000493565b92915050565b6000620004d1826200047f565b9050919050565b620004e381620004c4565b8114620004ef57600080fd5b50565b6000815190506200050381620004d8565b92915050565b600062000516826200047f565b9050919050565b620005288162000509565b81146200053457600080fd5b50565b60008151905062000548816200051d565b92915050565b600080600080600060a086880312156200056d576200056c6200041b565b5b60006200057d8882890162000448565b95505060206200059088828901620004ad565b9450506040620005a388828901620004f2565b9350506060620005b688828901620004f2565b9250506080620005c98882890162000537565b9150509295509295909350565b600082825260208201905092915050565b7f496e76616c696420646174616665656420616464726573730000000000000000600082015250565b60006200061f601883620005d6565b91506200062c82620005e7565b602082019050919050565b60006020820190508181036000830152620006528162000610565b9050919050565b7f496e76616c696420434754206164647265737300000000000000000000000000600082015250565b600062000691601383620005d6565b91506200069e8262000659565b602082019050919050565b60006020820190508181036000830152620006c48162000682565b9050919050565b7f496e76616c696420737461626c65746f6b656e20616464726573730000000000600082015250565b600062000703601b83620005d6565b91506200071082620006cb565b602082019050919050565b600060208201905081810360008301526200073681620006f4565b9050919050565b7f496e76616c69642053776170526f757465722061646472657373000000000000600082015250565b600062000775601a83620005d6565b915062000782826200073d565b602082019050919050565b60006020820190508181036000830152620007a88162000766565b9050919050565b60805160a051611f2e620007ea600039600081816103a70152818161048d01526109880152600081816105f301526108690152611f2e6000f3fe608060405234801561001057600080fd5b506004361061010b5760003560e01c806383f5499c116100a25780639ff29d89116100715780639ff29d8914610236578063c31c9c0714610266578063dba7137614610284578063edc29c17146102a0578063f2fde38b146102be5761010b565b806383f5499c146101d45780638456cb59146101f05780638da5cb5b146101fa5780638f76691a146102185761010b565b80635c975abb116100de5780635c975abb1461017057806360c6d8ae1461018e578063715018a6146101ac5780637a95f174146101b65761010b565b806315cc6bd71461011057806322be3de11461012c5780633f4ba83a1461014a57806349df728c14610154575b600080fd5b61012a600480360381019061012591906112ce565b6102da565b005b61013461065f565b60405161014191906113a8565b60405180910390f35b610152610685565b005b61016e60048036038101906101699190611401565b61069f565b005b610178610837565b6040516101859190611449565b60405180910390f35b61019661084d565b6040516101a39190611473565b60405180910390f35b6101b4610853565b005b6101be610867565b6040516101cb91906113a8565b60405180910390f35b6101ee60048036038101906101e991906114c8565b61088b565b005b6101f86108b3565b005b6102026108cd565b60405161020f9190611504565b60405180910390f35b6102206108f6565b60405161022d919061152e565b60405180910390f35b610250600480360381019061024b9190611549565b61090a565b60405161025d9190611473565b60405180910390f35b61026e610986565b60405161027b9190611597565b60405180910390f35b61029e60048036038101906102999190611401565b6109aa565b005b6102a86109f6565b6040516102b591906115cb565b60405180910390f35b6102d860048036038101906102d391906115e6565b610aa6565b005b6102e2610b2a565b600073ffffffffffffffffffffffffffffffffffffffff168573ffffffffffffffffffffffffffffffffffffffff161415610352576040517f08c379a000000000000000000000000000000000000000000000000000000000815260040161034990611670565b60405180910390fd5b60008311610395576040517f08c379a000000000000000000000000000000000000000000000000000000000815260040161038c906116dc565b60405180910390fd5b6103a185333086610b74565b6103cc857f000000000000000000000000000000000000000000000000000000000000000085610ccc565b60006040518061010001604052808773ffffffffffffffffffffffffffffffffffffffff168152602001600360009054906101000a900473ffffffffffffffffffffffffffffffffffffffff1673ffffffffffffffffffffffffffffffffffffffff1681526020018662ffffff1681526020013073ffffffffffffffffffffffffffffffffffffffff1681526020014281526020018581526020018481526020018373ffffffffffffffffffffffffffffffffffffffff16815250905060007f000000000000000000000000000000000000000000000000000000000000000073ffffffffffffffffffffffffffffffffffffffff1663414bf389836040518263ffffffff1660e01b81526004016104e491906117da565b602060405180830381600087803b1580156104fe57600080fd5b505af1158015610512573d6000803e3d6000fd5b505050506040513d601f19601f82011682018060405250810190610536919061180b565b9050612710600160149054906101000a900461ffff1661ffff168261055b9190611867565b61056591906118f0565b600260008282546105769190611921565b925050819055506000612710600160149054906101000a900461ffff166127106105a09190611977565b61ffff16836105af9190611867565b6105b991906118f0565b905060006105c56109f6565b620186a0622b4208846105d89190611867565b6105e29190611867565b6105ec91906118f0565b90506106197f00000000000000000000000000000000000000000000000000000000000000003383610e21565b7f32d5b26ef315184ad43497d599144aec5497e69cc7bd7df0a87a9935ddd7e2b5338a8360405161064c939291906119ab565b60405180910390a1505050505050505050565b600360009054906101000a900473ffffffffffffffffffffffffffffffffffffffff1681565b61068d610f76565b610695610ff4565b61069d61103d565b565b6106a7610f76565b600073ffffffffffffffffffffffffffffffffffffffff168173ffffffffffffffffffffffffffffffffffffffff161415610717576040517f08c379a000000000000000000000000000000000000000000000000000000000815260040161070e90611670565b60405180910390fd5b8073ffffffffffffffffffffffffffffffffffffffff1663a9059cbb61073b6108cd565b8373ffffffffffffffffffffffffffffffffffffffff166370a08231306040518263ffffffff1660e01b81526004016107749190611504565b60206040518083038186803b15801561078c57600080fd5b505afa1580156107a0573d6000803e3d6000fd5b505050506040513d601f19601f820116820180604052508101906107c4919061180b565b6040518363ffffffff1660e01b81526004016107e19291906119e2565b602060405180830381600087803b1580156107fb57600080fd5b505af115801561080f573d6000803e3d6000fd5b505050506040513d601f19601f820116820180604052508101906108339190611a37565b5050565b60008060149054906101000a900460ff16905090565b60025481565b61085b610f76565b610865600061109f565b565b7f000000000000000000000000000000000000000000000000000000000000000081565b610893610f76565b80600160146101000a81548161ffff021916908361ffff16021790555050565b6108bb610f76565b6108c3610b2a565b6108cb611163565b565b60008060009054906101000a900473ffffffffffffffffffffffffffffffffffffffff16905090565b600160149054906101000a900461ffff1681565b600080612710600160149054906101000a900461ffff1661271061092e9190611977565b61ffff168461093d9190611867565b61094791906118f0565b905060006109536109f6565b620186a0622b4208846109669190611867565b6109709190611867565b61097a91906118f0565b90508092505050919050565b7f000000000000000000000000000000000000000000000000000000000000000081565b6109b2610f76565b80600360006101000a81548173ffffffffffffffffffffffffffffffffffffffff021916908373ffffffffffffffffffffffffffffffffffffffff16021790555050565b600080600160009054906101000a900473ffffffffffffffffffffffffffffffffffffffff1673ffffffffffffffffffffffffffffffffffffffff1663feaf968c6040518163ffffffff1660e01b815260040160a06040518083038186803b158015610a6157600080fd5b505afa158015610a75573d6000803e3d6000fd5b505050506040513d601f19601f82011682018060405250810190610a999190611ad2565b5050509150508091505090565b610aae610f76565b600073ffffffffffffffffffffffffffffffffffffffff168173ffffffffffffffffffffffffffffffffffffffff161415610b1e576040517f08c379a0000000000000000000000000000000000000000000000000000000008152600401610b1590611bbf565b60405180910390fd5b610b278161109f565b50565b610b32610837565b15610b72576040517f08c379a0000000000000000000000000000000000000000000000000000000008152600401610b6990611c2b565b60405180910390fd5b565b6000808573ffffffffffffffffffffffffffffffffffffffff166323b872dd60e01b868686604051602401610bab939291906119ab565b604051602081830303815290604052907bffffffffffffffffffffffffffffffffffffffffffffffffffffffff19166020820180517bffffffffffffffffffffffffffffffffffffffffffffffffffffffff8381831617835250505050604051610c159190611cc5565b6000604051808303816000865af19150503d8060008114610c52576040519150601f19603f3d011682016040523d82523d6000602084013e610c57565b606091505b5091509150818015610c855750600081511480610c84575080806020019051810190610c839190611a37565b5b5b610cc4576040517f08c379a0000000000000000000000000000000000000000000000000000000008152600401610cbb90611d28565b60405180910390fd5b505050505050565b6000808473ffffffffffffffffffffffffffffffffffffffff1663095ea7b360e01b8585604051602401610d019291906119e2565b604051602081830303815290604052907bffffffffffffffffffffffffffffffffffffffffffffffffffffffff19166020820180517bffffffffffffffffffffffffffffffffffffffffffffffffffffffff8381831617835250505050604051610d6b9190611cc5565b6000604051808303816000865af19150503d8060008114610da8576040519150601f19603f3d011682016040523d82523d6000602084013e610dad565b606091505b5091509150818015610ddb5750600081511480610dda575080806020019051810190610dd99190611a37565b5b5b610e1a576040517f08c379a0000000000000000000000000000000000000000000000000000000008152600401610e1190611d94565b60405180910390fd5b5050505050565b6000808473ffffffffffffffffffffffffffffffffffffffff1663a9059cbb60e01b8585604051602401610e569291906119e2565b604051602081830303815290604052907bffffffffffffffffffffffffffffffffffffffffffffffffffffffff19166020820180517bffffffffffffffffffffffffffffffffffffffffffffffffffffffff8381831617835250505050604051610ec09190611cc5565b6000604051808303816000865af19150503d8060008114610efd576040519150601f19603f3d011682016040523d82523d6000602084013e610f02565b606091505b5091509150818015610f305750600081511480610f2f575080806020019051810190610f2e9190611a37565b5b5b610f6f576040517f08c379a0000000000000000000000000000000000000000000000000000000008152600401610f6690611e00565b60405180910390fd5b5050505050565b610f7e6111c6565b73ffffffffffffffffffffffffffffffffffffffff16610f9c6108cd565b73ffffffffffffffffffffffffffffffffffffffff1614610ff2576040517f08c379a0000000000000000000000000000000000000000000000000000000008152600401610fe990611e6c565b60405180910390fd5b565b610ffc610837565b61103b576040517f08c379a000000000000000000000000000000000000000000000000000000000815260040161103290611ed8565b60405180910390fd5b565b611045610ff4565b60008060146101000a81548160ff0219169083151502179055507f5db9ee0a495bf2e6ff9c91a7834c1ba4fdd244a5e8aa4e537bd38aeae4b073aa6110886111c6565b6040516110959190611504565b60405180910390a1565b60008060009054906101000a900473ffffffffffffffffffffffffffffffffffffffff169050816000806101000a81548173ffffffffffffffffffffffffffffffffffffffff021916908373ffffffffffffffffffffffffffffffffffffffff1602179055508173ffffffffffffffffffffffffffffffffffffffff168173ffffffffffffffffffffffffffffffffffffffff167f8be0079c531659141344cd1fd0a4f28419497f9722a3daafe3b4186f6b6457e060405160405180910390a35050565b61116b610b2a565b6001600060146101000a81548160ff0219169083151502179055507f62e78cea01bee320cd4e420270b5ea74000d11b0c9f74754ebdbfc544b05a2586111af6111c6565b6040516111bc9190611504565b60405180910390a1565b600033905090565b600080fd5b600073ffffffffffffffffffffffffffffffffffffffff82169050919050565b60006111fe826111d3565b9050919050565b61120e816111f3565b811461121957600080fd5b50565b60008135905061122b81611205565b92915050565b600062ffffff82169050919050565b61124981611231565b811461125457600080fd5b50565b60008135905061126681611240565b92915050565b6000819050919050565b61127f8161126c565b811461128a57600080fd5b50565b60008135905061129c81611276565b92915050565b6112ab816111d3565b81146112b657600080fd5b50565b6000813590506112c8816112a2565b92915050565b600080600080600060a086880312156112ea576112e96111ce565b5b60006112f88882890161121c565b955050602061130988828901611257565b945050604061131a8882890161128d565b935050606061132b8882890161128d565b925050608061133c888289016112b9565b9150509295509295909350565b6000819050919050565b600061136e611369611364846111d3565b611349565b6111d3565b9050919050565b600061138082611353565b9050919050565b600061139282611375565b9050919050565b6113a281611387565b82525050565b60006020820190506113bd6000830184611399565b92915050565b60006113ce826111f3565b9050919050565b6113de816113c3565b81146113e957600080fd5b50565b6000813590506113fb816113d5565b92915050565b600060208284031215611417576114166111ce565b5b6000611425848285016113ec565b91505092915050565b60008115159050919050565b6114438161142e565b82525050565b600060208201905061145e600083018461143a565b92915050565b61146d8161126c565b82525050565b60006020820190506114886000830184611464565b92915050565b600061ffff82169050919050565b6114a58161148e565b81146114b057600080fd5b50565b6000813590506114c28161149c565b92915050565b6000602082840312156114de576114dd6111ce565b5b60006114ec848285016114b3565b91505092915050565b6114fe816111f3565b82525050565b600060208201905061151960008301846114f5565b92915050565b6115288161148e565b82525050565b6000602082019050611543600083018461151f565b92915050565b60006020828403121561155f5761155e6111ce565b5b600061156d8482850161128d565b91505092915050565b600061158182611375565b9050919050565b61159181611576565b82525050565b60006020820190506115ac6000830184611588565b92915050565b6000819050919050565b6115c5816115b2565b82525050565b60006020820190506115e060008301846115bc565b92915050565b6000602082840312156115fc576115fb6111ce565b5b600061160a8482850161121c565b91505092915050565b600082825260208201905092915050565b7f496e76616c696420746f6b656e20616464726573730000000000000000000000600082015250565b600061165a601583611613565b915061166582611624565b602082019050919050565b600060208201905081810360008301526116898161164d565b9050919050565b7f496e76616c696420616d6f756e74000000000000000000000000000000000000600082015250565b60006116c6600e83611613565b91506116d182611690565b602082019050919050565b600060208201905081810360008301526116f5816116b9565b9050919050565b611705816111f3565b82525050565b61171481611231565b82525050565b6117238161126c565b82525050565b611732816111d3565b82525050565b6101008201600082015161174f60008501826116fc565b50602082015161176260208501826116fc565b506040820151611775604085018261170b565b50606082015161178860608501826116fc565b50608082015161179b608085018261171a565b5060a08201516117ae60a085018261171a565b5060c08201516117c160c085018261171a565b5060e08201516117d460e0850182611729565b50505050565b6000610100820190506117f06000830184611738565b92915050565b60008151905061180581611276565b92915050565b600060208284031215611821576118206111ce565b5b600061182f848285016117f6565b91505092915050565b7f4e487b7100000000000000000000000000000000000000000000000000000000600052601160045260246000fd5b60006118728261126c565b915061187d8361126c565b9250817fffffffffffffffffffffffffffffffffffffffffffffffffffffffffffffffff04831182151516156118b6576118b5611838565b5b828202905092915050565b7f4e487b7100000000000000000000000000000000000000000000000000000000600052601260045260246000fd5b60006118fb8261126c565b91506119068361126c565b925082611916576119156118c1565b5b828204905092915050565b600061192c8261126c565b91506119378361126c565b9250827fffffffffffffffffffffffffffffffffffffffffffffffffffffffffffffffff0382111561196c5761196b611838565b5b828201905092915050565b60006119828261148e565b915061198d8361148e565b9250828210156119a05761199f611838565b5b828203905092915050565b60006060820190506119c060008301866114f5565b6119cd60208301856114f5565b6119da6040830184611464565b949350505050565b60006040820190506119f760008301856114f5565b611a046020830184611464565b9392505050565b611a148161142e565b8114611a1f57600080fd5b50565b600081519050611a3181611a0b565b92915050565b600060208284031215611a4d57611a4c6111ce565b5b6000611a5b84828501611a22565b91505092915050565b600069ffffffffffffffffffff82169050919050565b611a8381611a64565b8114611a8e57600080fd5b50565b600081519050611aa081611a7a565b92915050565b611aaf816115b2565b8114611aba57600080fd5b50565b600081519050611acc81611aa6565b92915050565b600080600080600060a08688031215611aee57611aed6111ce565b5b6000611afc88828901611a91565b9550506020611b0d88828901611abd565b9450506040611b1e888289016117f6565b9350506060611b2f888289016117f6565b9250506080611b4088828901611a91565b9150509295509295909350565b7f4f776e61626c653a206e6577206f776e657220697320746865207a65726f206160008201527f6464726573730000000000000000000000000000000000000000000000000000602082015250565b6000611ba9602683611613565b9150611bb482611b4d565b604082019050919050565b60006020820190508181036000830152611bd881611b9c565b9050919050565b7f5061757361626c653a2070617573656400000000000000000000000000000000600082015250565b6000611c15601083611613565b9150611c2082611bdf565b602082019050919050565b60006020820190508181036000830152611c4481611c08565b9050919050565b600081519050919050565b600081905092915050565b60005b83811015611c7f578082015181840152602081019050611c64565b83811115611c8e576000848401525b50505050565b6000611c9f82611c4b565b611ca98185611c56565b9350611cb9818560208601611c61565b80840191505092915050565b6000611cd18284611c94565b915081905092915050565b7f5354460000000000000000000000000000000000000000000000000000000000600082015250565b6000611d12600383611613565b9150611d1d82611cdc565b602082019050919050565b60006020820190508181036000830152611d4181611d05565b9050919050565b7f5341000000000000000000000000000000000000000000000000000000000000600082015250565b6000611d7e600283611613565b9150611d8982611d48565b602082019050919050565b60006020820190508181036000830152611dad81611d71565b9050919050565b7f5354000000000000000000000000000000000000000000000000000000000000600082015250565b6000611dea600283611613565b9150611df582611db4565b602082019050919050565b60006020820190508181036000830152611e1981611ddd565b9050919050565b7f4f776e61626c653a2063616c6c6572206973206e6f7420746865206f776e6572600082015250565b6000611e56602083611613565b9150611e6182611e20565b602082019050919050565b60006020820190508181036000830152611e8581611e49565b9050919050565b7f5061757361626c653a206e6f7420706175736564000000000000000000000000600082015250565b6000611ec2601483611613565b9150611ecd82611e8c565b602082019050919050565b60006020820190508181036000830152611ef181611eb5565b905091905056fea2646970667358221220b28bfb0a36fec96755b5cdf0ab09759682ca3980ab810bd7ab669b3bbd6dfbee64736f6c63430008090033",
  "linkReferences": {},
  "deployedLinkReferences": {}
}