{
  "_format": "hh-sol-artifact-1",
  "contractName": "WrapperContract",
  "sourceName": "contracts/WrapperContract.sol",
  "abi": [
    {
      "inputs": [
        {
          "internalType": "uint16",
          "name": "_margin",
          "type": "uint16"
        },
        {
          "internalType": "address",
          "name": "_dataFeedAddress",
          "type": "address"
        },
        {
          "internalType": "contract IERC20",
          "name": "_CGT",
          "type": "address"
        },
        {
          "internalType": "contract IERC20",
          "name": "_USDC",
          "type": "address"
        },
        {
          "internalType": "contract ISwapRouter",
          "name": "_swapRouter",
          "type": "address"
        }
      ],
      "stateMutability": "nonpayable",
      "type": "constructor"
    },
    {
      "anonymous": false,
      "inputs": [
        {
          "indexed": true,
          "internalType": "address",
          "name": "previousOwner",
          "type": "address"
        },
        {
          "indexed": true,
          "internalType": "address",
          "name": "newOwner",
          "type": "address"
        }
      ],
      "name": "OwnershipTransferred",
      "type": "event"
    },
    {
      "anonymous": false,
      "inputs": [
        {
          "indexed": false,
          "internalType": "address",
          "name": "sender",
          "type": "address"
        },
        {
          "indexed": false,
          "internalType": "address",
          "name": "tokenIn",
          "type": "address"
        },
        {
          "indexed": false,
          "internalType": "uint256",
          "name": "CGTAmount",
          "type": "uint256"
        }
      ],
      "name": "SwappedTokensForCGT",
      "type": "event"
    },
    {
      "inputs": [],
      "name": "CGT",
      "outputs": [
        {
          "internalType": "contract IERC20",
          "name": "",
          "type": "address"
        }
      ],
      "stateMutability": "view",
      "type": "function"
    },
    {
      "inputs": [],
      "name": "USDC",
      "outputs": [
        {
          "internalType": "contract IERC20",
          "name": "",
          "type": "address"
        }
      ],
      "stateMutability": "view",
      "type": "function"
    },
    {
      "inputs": [],
      "name": "getLatestXAU_USDPrice",
      "outputs": [
        {
          "internalType": "int256",
          "name": "",
          "type": "int256"
        }
      ],
      "stateMutability": "view",
      "type": "function"
    },
    {
      "inputs": [],
      "name": "margin",
      "outputs": [
        {
          "internalType": "uint16",
          "name": "",
          "type": "uint16"
        }
      ],
      "stateMutability": "view",
      "type": "function"
    },
    {
      "inputs": [],
      "name": "owner",
      "outputs": [
        {
          "internalType": "address",
          "name": "",
          "type": "address"
        }
      ],
      "stateMutability": "view",
      "type": "function"
    },
    {
      "inputs": [
        {
          "internalType": "uint256",
          "name": "USDC_AmountIn",
          "type": "uint256"
        }
      ],
      "name": "quoteCGTAmountReceived",
      "outputs": [
        {
          "internalType": "uint256",
          "name": "",
          "type": "uint256"
        }
      ],
      "stateMutability": "view",
      "type": "function"
    },
    {
      "inputs": [],
      "name": "renounceOwnership",
      "outputs": [],
      "stateMutability": "nonpayable",
      "type": "function"
    },
    {
      "inputs": [
        {
          "internalType": "uint16",
          "name": "_margin",
          "type": "uint16"
        }
      ],
      "name": "setMargin",
      "outputs": [],
      "stateMutability": "nonpayable",
      "type": "function"
    },
    {
      "inputs": [],
      "name": "swapRouter",
      "outputs": [
        {
          "internalType": "contract ISwapRouter",
          "name": "",
          "type": "address"
        }
      ],
      "stateMutability": "view",
      "type": "function"
    },
    {
      "inputs": [
        {
          "internalType": "address",
          "name": "tokenIn",
          "type": "address"
        },
        {
          "internalType": "uint24",
          "name": "poolFee",
          "type": "uint24"
        },
        {
          "internalType": "uint256",
          "name": "amountIn",
          "type": "uint256"
        },
        {
          "internalType": "uint256",
          "name": "USDCAmountOutMinimum",
          "type": "uint256"
        },
        {
          "internalType": "uint160",
          "name": "sqrtPriceLimitX96",
          "type": "uint160"
        }
      ],
      "name": "swapTokensForCGT",
      "outputs": [],
      "stateMutability": "nonpayable",
      "type": "function"
    },
    {
      "inputs": [],
      "name": "totalFeesCollected",
      "outputs": [
        {
          "internalType": "uint256",
          "name": "",
          "type": "uint256"
        }
      ],
      "stateMutability": "view",
      "type": "function"
    },
    {
      "inputs": [
        {
          "internalType": "address",
          "name": "newOwner",
          "type": "address"
        }
      ],
      "name": "transferOwnership",
      "outputs": [],
      "stateMutability": "nonpayable",
      "type": "function"
    },
    {
      "inputs": [
        {
          "internalType": "address",
          "name": "tokenAddress",
          "type": "address"
        }
      ],
      "name": "withdrawTokens",
      "outputs": [],
      "stateMutability": "nonpayable",
      "type": "function"
    }
  ],
  "bytecode": "0x60e06040523480156200001157600080fd5b506040516200230f3803806200230f833981810160405281019062000037919062000527565b620000576200004b6200032860201b60201c565b6200033060201b60201c565b600073ffffffffffffffffffffffffffffffffffffffff168473ffffffffffffffffffffffffffffffffffffffff161415620000ca576040517f08c379a0000000000000000000000000000000000000000000000000000000008152600401620000c19062000610565b60405180910390fd5b600073ffffffffffffffffffffffffffffffffffffffff168373ffffffffffffffffffffffffffffffffffffffff1614156200013d576040517f08c379a0000000000000000000000000000000000000000000000000000000008152600401620001349062000682565b60405180910390fd5b600073ffffffffffffffffffffffffffffffffffffffff168273ffffffffffffffffffffffffffffffffffffffff161415620001b0576040517f08c379a0000000000000000000000000000000000000000000000000000000008152600401620001a790620006f4565b60405180910390fd5b600073ffffffffffffffffffffffffffffffffffffffff168173ffffffffffffffffffffffffffffffffffffffff16141562000223576040517f08c379a00000000000000000000000000000000000000000000000000000000081526004016200021a9062000766565b60405180910390fd5b84600160146101000a81548161ffff021916908361ffff16021790555083600160006101000a81548173ffffffffffffffffffffffffffffffffffffffff021916908373ffffffffffffffffffffffffffffffffffffffff1602179055508273ffffffffffffffffffffffffffffffffffffffff1660808173ffffffffffffffffffffffffffffffffffffffff16815250508173ffffffffffffffffffffffffffffffffffffffff1660a08173ffffffffffffffffffffffffffffffffffffffff16815250508073ffffffffffffffffffffffffffffffffffffffff1660c08173ffffffffffffffffffffffffffffffffffffffff1681525050505050505062000788565b600033905090565b60008060009054906101000a900473ffffffffffffffffffffffffffffffffffffffff169050816000806101000a81548173ffffffffffffffffffffffffffffffffffffffff021916908373ffffffffffffffffffffffffffffffffffffffff1602179055508173ffffffffffffffffffffffffffffffffffffffff168173ffffffffffffffffffffffffffffffffffffffff167f8be0079c531659141344cd1fd0a4f28419497f9722a3daafe3b4186f6b6457e060405160405180910390a35050565b600080fd5b600061ffff82169050919050565b6200041281620003f9565b81146200041e57600080fd5b50565b600081519050620004328162000407565b92915050565b600073ffffffffffffffffffffffffffffffffffffffff82169050919050565b6000620004658262000438565b9050919050565b620004778162000458565b81146200048357600080fd5b50565b60008151905062000497816200046c565b92915050565b6000620004aa8262000458565b9050919050565b620004bc816200049d565b8114620004c857600080fd5b50565b600081519050620004dc81620004b1565b92915050565b6000620004ef8262000458565b9050919050565b6200050181620004e2565b81146200050d57600080fd5b50565b6000815190506200052181620004f6565b92915050565b600080600080600060a08688031215620005465762000545620003f4565b5b6000620005568882890162000421565b9550506020620005698882890162000486565b94505060406200057c88828901620004cb565b93505060606200058f88828901620004cb565b9250506080620005a28882890162000510565b9150509295509295909350565b600082825260208201905092915050565b7f496e76616c696420646174616665656420616464726573730000000000000000600082015250565b6000620005f8601883620005af565b91506200060582620005c0565b602082019050919050565b600060208201905081810360008301526200062b81620005e9565b9050919050565b7f496e76616c696420434754206164647265737300000000000000000000000000600082015250565b60006200066a601383620005af565b9150620006778262000632565b602082019050919050565b600060208201905081810360008301526200069d816200065b565b9050919050565b7f496e76616c696420555344432061646472657373000000000000000000000000600082015250565b6000620006dc601483620005af565b9150620006e982620006a4565b602082019050919050565b600060208201905081810360008301526200070f81620006cd565b9050919050565b7f496e76616c69642053776170526f757465722061646472657373000000000000600082015250565b60006200074e601a83620005af565b91506200075b8262000716565b602082019050919050565b6000602082019050818103600083015262000781816200073f565b9050919050565b60805160a05160c051611b3b620007d460003960008181610315015281816103f901526108a601526000818161036601526107ca01526000818161055e015261077e0152611b3b6000f3fe608060405234801561001057600080fd5b50600436106100cf5760003560e01c806389a302711161008c5780639ff29d89116100665780639ff29d89146101c8578063c31c9c07146101f8578063edc29c1714610216578063f2fde38b14610234576100cf565b806389a302711461016e5780638da5cb5b1461018c5780638f76691a146101aa576100cf565b806315cc6bd7146100d457806349df728c146100f057806360c6d8ae1461010c578063715018a61461012a5780637a95f1741461013457806383f5499c14610152575b600080fd5b6100ee60048036038101906100e99190611048565b610250565b005b61010a600480360381019061010591906110c3565b6105ca565b005b610114610762565b60405161012191906110ff565b60405180910390f35b610132610768565b005b61013c61077c565b6040516101499190611179565b60405180910390f35b61016c600480360381019061016791906111ce565b6107a0565b005b6101766107c8565b6040516101839190611179565b60405180910390f35b6101946107ec565b6040516101a1919061120a565b60405180910390f35b6101b2610815565b6040516101bf9190611234565b60405180910390f35b6101e260048036038101906101dd919061124f565b610829565b6040516101ef91906110ff565b60405180910390f35b6102006108a4565b60405161020d919061129d565b60405180910390f35b61021e6108c8565b60405161022b91906112d1565b60405180910390f35b61024e600480360381019061024991906110c3565b610978565b005b600073ffffffffffffffffffffffffffffffffffffffff168573ffffffffffffffffffffffffffffffffffffffff1614156102c0576040517f08c379a00000000000000000000000000000000000000000000000000000000081526004016102b790611349565b60405180910390fd5b60008311610303576040517f08c379a00000000000000000000000000000000000000000000000000000000081526004016102fa906113b5565b60405180910390fd5b61030f853330866109fc565b61033a857f000000000000000000000000000000000000000000000000000000000000000085610b54565b60006040518061010001604052808773ffffffffffffffffffffffffffffffffffffffff1681526020017f000000000000000000000000000000000000000000000000000000000000000073ffffffffffffffffffffffffffffffffffffffff1681526020018662ffffff1681526020013073ffffffffffffffffffffffffffffffffffffffff1681526020014281526020018581526020018481526020018373ffffffffffffffffffffffffffffffffffffffff16815250905060007f000000000000000000000000000000000000000000000000000000000000000073ffffffffffffffffffffffffffffffffffffffff1663414bf389836040518263ffffffff1660e01b815260040161045091906114b3565b602060405180830381600087803b15801561046a57600080fd5b505af115801561047e573d6000803e3d6000fd5b505050506040513d601f19601f820116820180604052508101906104a291906114e4565b9050612710600160149054906101000a900461ffff1661ffff16826104c79190611540565b6104d191906115c9565b600260008282546104e291906115fa565b925050819055506000612710600160149054906101000a900461ffff1661271061050c9190611650565b61ffff168361051b9190611540565b61052591906115c9565b905060006105316108c8565b6305f5e1006064846105439190611540565b61054d9190611540565b61055791906115c9565b90506105847f00000000000000000000000000000000000000000000000000000000000000003383610ca9565b7f32d5b26ef315184ad43497d599144aec5497e69cc7bd7df0a87a9935ddd7e2b5338a836040516105b793929190611684565b60405180910390a1505050505050505050565b6105d2610dfe565b600073ffffffffffffffffffffffffffffffffffffffff168173ffffffffffffffffffffffffffffffffffffffff161415610642576040517f08c379a000000000000000000000000000000000000000000000000000000000815260040161063990611349565b60405180910390fd5b8073ffffffffffffffffffffffffffffffffffffffff1663a9059cbb6106666107ec565b8373ffffffffffffffffffffffffffffffffffffffff166370a08231306040518263ffffffff1660e01b815260040161069f919061120a565b60206040518083038186803b1580156106b757600080fd5b505afa1580156106cb573d6000803e3d6000fd5b505050506040513d601f19601f820116820180604052508101906106ef91906114e4565b6040518363ffffffff1660e01b815260040161070c9291906116bb565b602060405180830381600087803b15801561072657600080fd5b505af115801561073a573d6000803e3d6000fd5b505050506040513d601f19601f8201168201806040525081019061075e919061171c565b5050565b60025481565b610770610dfe565b61077a6000610e7c565b565b7f000000000000000000000000000000000000000000000000000000000000000081565b6107a8610dfe565b80600160146101000a81548161ffff021916908361ffff16021790555050565b7f000000000000000000000000000000000000000000000000000000000000000081565b60008060009054906101000a900473ffffffffffffffffffffffffffffffffffffffff16905090565b600160149054906101000a900461ffff1681565b600080612710600160149054906101000a900461ffff1661271061084d9190611650565b61ffff168461085c9190611540565b61086691906115c9565b905060006108726108c8565b6305f5e1006064846108849190611540565b61088e9190611540565b61089891906115c9565b90508092505050919050565b7f000000000000000000000000000000000000000000000000000000000000000081565b600080600160009054906101000a900473ffffffffffffffffffffffffffffffffffffffff1673ffffffffffffffffffffffffffffffffffffffff1663feaf968c6040518163ffffffff1660e01b815260040160a06040518083038186803b15801561093357600080fd5b505afa158015610947573d6000803e3d6000fd5b505050506040513d601f19601f8201168201806040525081019061096b91906117b7565b5050509150508091505090565b610980610dfe565b600073ffffffffffffffffffffffffffffffffffffffff168173ffffffffffffffffffffffffffffffffffffffff1614156109f0576040517f08c379a00000000000000000000000000000000000000000000000000000000081526004016109e7906118a4565b60405180910390fd5b6109f981610e7c565b50565b6000808573ffffffffffffffffffffffffffffffffffffffff166323b872dd60e01b868686604051602401610a3393929190611684565b604051602081830303815290604052907bffffffffffffffffffffffffffffffffffffffffffffffffffffffff19166020820180517bffffffffffffffffffffffffffffffffffffffffffffffffffffffff8381831617835250505050604051610a9d919061193e565b6000604051808303816000865af19150503d8060008114610ada576040519150601f19603f3d011682016040523d82523d6000602084013e610adf565b606091505b5091509150818015610b0d5750600081511480610b0c575080806020019051810190610b0b919061171c565b5b5b610b4c576040517f08c379a0000000000000000000000000000000000000000000000000000000008152600401610b43906119a1565b60405180910390fd5b505050505050565b6000808473ffffffffffffffffffffffffffffffffffffffff1663095ea7b360e01b8585604051602401610b899291906116bb565b604051602081830303815290604052907bffffffffffffffffffffffffffffffffffffffffffffffffffffffff19166020820180517bffffffffffffffffffffffffffffffffffffffffffffffffffffffff8381831617835250505050604051610bf3919061193e565b6000604051808303816000865af19150503d8060008114610c30576040519150601f19603f3d011682016040523d82523d6000602084013e610c35565b606091505b5091509150818015610c635750600081511480610c62575080806020019051810190610c61919061171c565b5b5b610ca2576040517f08c379a0000000000000000000000000000000000000000000000000000000008152600401610c9990611a0d565b60405180910390fd5b5050505050565b6000808473ffffffffffffffffffffffffffffffffffffffff1663a9059cbb60e01b8585604051602401610cde9291906116bb565b604051602081830303815290604052907bffffffffffffffffffffffffffffffffffffffffffffffffffffffff19166020820180517bffffffffffffffffffffffffffffffffffffffffffffffffffffffff8381831617835250505050604051610d48919061193e565b6000604051808303816000865af19150503d8060008114610d85576040519150601f19603f3d011682016040523d82523d6000602084013e610d8a565b606091505b5091509150818015610db85750600081511480610db7575080806020019051810190610db6919061171c565b5b5b610df7576040517f08c379a0000000000000000000000000000000000000000000000000000000008152600401610dee90611a79565b60405180910390fd5b5050505050565b610e06610f40565b73ffffffffffffffffffffffffffffffffffffffff16610e246107ec565b73ffffffffffffffffffffffffffffffffffffffff1614610e7a576040517f08c379a0000000000000000000000000000000000000000000000000000000008152600401610e7190611ae5565b60405180910390fd5b565b60008060009054906101000a900473ffffffffffffffffffffffffffffffffffffffff169050816000806101000a81548173ffffffffffffffffffffffffffffffffffffffff021916908373ffffffffffffffffffffffffffffffffffffffff1602179055508173ffffffffffffffffffffffffffffffffffffffff168173ffffffffffffffffffffffffffffffffffffffff167f8be0079c531659141344cd1fd0a4f28419497f9722a3daafe3b4186f6b6457e060405160405180910390a35050565b600033905090565b600080fd5b600073ffffffffffffffffffffffffffffffffffffffff82169050919050565b6000610f7882610f4d565b9050919050565b610f8881610f6d565b8114610f9357600080fd5b50565b600081359050610fa581610f7f565b92915050565b600062ffffff82169050919050565b610fc381610fab565b8114610fce57600080fd5b50565b600081359050610fe081610fba565b92915050565b6000819050919050565b610ff981610fe6565b811461100457600080fd5b50565b60008135905061101681610ff0565b92915050565b61102581610f4d565b811461103057600080fd5b50565b6000813590506110428161101c565b92915050565b600080600080600060a0868803121561106457611063610f48565b5b600061107288828901610f96565b955050602061108388828901610fd1565b945050604061109488828901611007565b93505060606110a588828901611007565b92505060806110b688828901611033565b9150509295509295909350565b6000602082840312156110d9576110d8610f48565b5b60006110e784828501610f96565b91505092915050565b6110f981610fe6565b82525050565b600060208201905061111460008301846110f0565b92915050565b6000819050919050565b600061113f61113a61113584610f4d565b61111a565b610f4d565b9050919050565b600061115182611124565b9050919050565b600061116382611146565b9050919050565b61117381611158565b82525050565b600060208201905061118e600083018461116a565b92915050565b600061ffff82169050919050565b6111ab81611194565b81146111b657600080fd5b50565b6000813590506111c8816111a2565b92915050565b6000602082840312156111e4576111e3610f48565b5b60006111f2848285016111b9565b91505092915050565b61120481610f6d565b82525050565b600060208201905061121f60008301846111fb565b92915050565b61122e81611194565b82525050565b60006020820190506112496000830184611225565b92915050565b60006020828403121561126557611264610f48565b5b600061127384828501611007565b91505092915050565b600061128782611146565b9050919050565b6112978161127c565b82525050565b60006020820190506112b2600083018461128e565b92915050565b6000819050919050565b6112cb816112b8565b82525050565b60006020820190506112e660008301846112c2565b92915050565b600082825260208201905092915050565b7f496e76616c696420746f6b656e20616464726573730000000000000000000000600082015250565b60006113336015836112ec565b915061133e826112fd565b602082019050919050565b6000602082019050818103600083015261136281611326565b9050919050565b7f496e76616c696420616d6f756e74000000000000000000000000000000000000600082015250565b600061139f600e836112ec565b91506113aa82611369565b602082019050919050565b600060208201905081810360008301526113ce81611392565b9050919050565b6113de81610f6d565b82525050565b6113ed81610fab565b82525050565b6113fc81610fe6565b82525050565b61140b81610f4d565b82525050565b6101008201600082015161142860008501826113d5565b50602082015161143b60208501826113d5565b50604082015161144e60408501826113e4565b50606082015161146160608501826113d5565b50608082015161147460808501826113f3565b5060a082015161148760a08501826113f3565b5060c082015161149a60c08501826113f3565b5060e08201516114ad60e0850182611402565b50505050565b6000610100820190506114c96000830184611411565b92915050565b6000815190506114de81610ff0565b92915050565b6000602082840312156114fa576114f9610f48565b5b6000611508848285016114cf565b91505092915050565b7f4e487b7100000000000000000000000000000000000000000000000000000000600052601160045260246000fd5b600061154b82610fe6565b915061155683610fe6565b9250817fffffffffffffffffffffffffffffffffffffffffffffffffffffffffffffffff048311821515161561158f5761158e611511565b5b828202905092915050565b7f4e487b7100000000000000000000000000000000000000000000000000000000600052601260045260246000fd5b60006115d482610fe6565b91506115df83610fe6565b9250826115ef576115ee61159a565b5b828204905092915050565b600061160582610fe6565b915061161083610fe6565b9250827fffffffffffffffffffffffffffffffffffffffffffffffffffffffffffffffff0382111561164557611644611511565b5b828201905092915050565b600061165b82611194565b915061166683611194565b92508282101561167957611678611511565b5b828203905092915050565b600060608201905061169960008301866111fb565b6116a660208301856111fb565b6116b360408301846110f0565b949350505050565b60006040820190506116d060008301856111fb565b6116dd60208301846110f0565b9392505050565b60008115159050919050565b6116f9816116e4565b811461170457600080fd5b50565b600081519050611716816116f0565b92915050565b60006020828403121561173257611731610f48565b5b600061174084828501611707565b91505092915050565b600069ffffffffffffffffffff82169050919050565b61176881611749565b811461177357600080fd5b50565b6000815190506117858161175f565b92915050565b611794816112b8565b811461179f57600080fd5b50565b6000815190506117b18161178b565b92915050565b600080600080600060a086880312156117d3576117d2610f48565b5b60006117e188828901611776565b95505060206117f2888289016117a2565b9450506040611803888289016114cf565b9350506060611814888289016114cf565b925050608061182588828901611776565b9150509295509295909350565b7f4f776e61626c653a206e6577206f776e657220697320746865207a65726f206160008201527f6464726573730000000000000000000000000000000000000000000000000000602082015250565b600061188e6026836112ec565b915061189982611832565b604082019050919050565b600060208201905081810360008301526118bd81611881565b9050919050565b600081519050919050565b600081905092915050565b60005b838110156118f85780820151818401526020810190506118dd565b83811115611907576000848401525b50505050565b6000611918826118c4565b61192281856118cf565b93506119328185602086016118da565b80840191505092915050565b600061194a828461190d565b915081905092915050565b7f5354460000000000000000000000000000000000000000000000000000000000600082015250565b600061198b6003836112ec565b915061199682611955565b602082019050919050565b600060208201905081810360008301526119ba8161197e565b9050919050565b7f5341000000000000000000000000000000000000000000000000000000000000600082015250565b60006119f76002836112ec565b9150611a02826119c1565b602082019050919050565b60006020820190508181036000830152611a26816119ea565b9050919050565b7f5354000000000000000000000000000000000000000000000000000000000000600082015250565b6000611a636002836112ec565b9150611a6e82611a2d565b602082019050919050565b60006020820190508181036000830152611a9281611a56565b9050919050565b7f4f776e61626c653a2063616c6c6572206973206e6f7420746865206f776e6572600082015250565b6000611acf6020836112ec565b9150611ada82611a99565b602082019050919050565b60006020820190508181036000830152611afe81611ac2565b905091905056fea2646970667358221220243404b734f6523aa4df4302a6c6c87d5c1279e228119567e5f1c45fd154f40264736f6c63430008090033",
  "linkReferences": {},
  "deployedLinkReferences": {}
}